:020000040000FA
:100000000C94B0280C94E1280C94E1280C94E1287D
:100010000C94E1280C94E1280C94E1280C94E1283C
:100020000C94E1280C94E4C30C94E4C30C94E4C352
:100030000C94E1280C94E1280C94E1280C94E1281C
:100040000C94E1280C9464390C94E1280C94E12878
:100050000C94E1280C94E1280C9406B40C9409C388
:100060000C94E1280C9404330C94E1280C94E128BE
:100070000C94E1280C94E1280C94E1280C94E128DC
:100080000C94E1280C94E1280C94E1280C94E128CC
:100090000C94E1280C94E1280C94E1280C94E128BC
:1000A0000C94E1280C94E1280C94E1280C94E128AC
:1000B0000C94E1280C94E1280C94E1280C94E1289C
:1000C0000C94E1280C94E1280C94E1280C94E1288C
:1000D0000C94E1280C94E1280C94E1280C94E1287C
:1000E0000C94E128084AD73B3BCE016E84BCBFFD8F
:1000F000C12F3D6C74319ABD56833DDA3D00C77FF8
:1001000011BED9E4BB4C3E916BAAAABE0000008090
:100110003F05A84CCDB2D44EB93836A9020C50B91F
:10012000918688083CA6AAAA2ABE000000803F0645
:1001300064EC1B3C04BC163E3BE5B93CC93C37C2F1
:100140009E5A3D660498083EEA69AAAA3E0000004D
:10015000803F0C9465A40C9467930C948DB90C9417
:10016000B2B90C9402290C9496930C94A8B90C94EF
:100170009C540C94BA540C940EBA0C949EB90C94E2
:10018000F1920C9400540C946ABA0C946E540C9432
:10019000C9540C94B0540C9469540C9494B90C94B4
:1001A0007FB90C9490930C94BFB90C948C990C94D7
:1001B0000DBA0C94A3BA0C9494930C9466990C9475
:1001C000E7540C94C4B90C94D3540C942F930C940E
:1001D0009AB90C9492930C9491B90C9405290C94AF
:1001E000C0B90C94C8B90C9482540C94F5B90C9411
:1001F00008290C94B6B90C94F8B30C948C540C9454
:10020000A4B90C9440930C949FA70C94ECC90C9443
:10021000DD540C9489B90C9426930C94FB540C94E3
:1002200023940C94F1540C94F9280C9494540C9449
:10023000A6540C94BAB90C94FC280C948E930C948C
:1002400057910C9478540C9485B90C9482BA0C9400
:10025000ACB90C94FF284E414E494E495459494E71
:1002600046CDCCCC3D0AD7233C17B7D13877CC2B21
:10027000329595E6241FB14F0A000020410000C8C6
:100280004200401C4620BCBE4CCA1B0E5AAEC59D47
:10029000746C6F673A20006E6F746963653A200072
:1002A0007761726E696E673A200043616C696272B1
:1002B0006174696F6E2053746F72656400436C657E
:1002C000617265642073746F726564207365747401
:1002D000696E6773202D2D2064656661756C74737B
:1002E0002077696C6C20626520757365640020203E
:1002F0004D3630312053005A2D537769746368208E
:10030000547970653A0020590020204D353037204F
:1003100058004261636B6C61736820436F6D706558
:100320006E736174696F6E3A00204100205900209D
:10033000204D3530362058005363616C696E67205C
:10034000616E6420536B657720284120696E2072AE
:10035000616469616E73293A00204B00204A0020D5
:10036000490020590020204D3530352058004F6677
:1003700066736574733A0020204D35303420530085
:1003800053657269616C204E6F3A005573696E67F0
:100390002073746F7265642076616C756573206676
:1003A0006F722073706565642073657474696E671D
:1003B000730052656164696E6720737065656420BF
:1003C00073657474696E67732C2076657273696FD8
:1003D0006E20005573696E672068617264636F6494
:1003E00065642064656661756C747320666F722045
:1003F00073706565642073657474696E677300005B
:100400007E7E7E006572726F723A200070726F6637
:10041000696C65436F6D706C657465007300432F84
:10042000732E20486F6C64696E6720666F722000BF
:10043000733B20617665726167652072616D703A09
:10044000200020696E2000432066726F6D200052EC
:100450006561636865642000430054617267657478
:100460003A2000430043757272656E743A2000545E
:10047000656D7065726174757265206368616E6721
:1004800065206E6F742064657465637465642E20E6
:100490000043005461726765743A2000430043755D
:1004A0007272656E743A20004661696C65642074EE
:1004B0006F2072656163682074617267657420746F
:1004C000656D7065726174757265207769746869AD
:1004D0006E2074696D656F757420706572696F64E4
:1004E0002E20006D732C20646561637469766174DD
:1004F000696E67206D6F746F727300546865207346
:10050000797374656D20686173206265656E20691A
:100510006E61637469766520666F72206D6F7265B7
:10052000207468616E20006D732C206465616374B3
:1005300069766174696E6720686561746572004EE2
:100540006F20636F6D6D756E69636174696F6E2086
:10055000666F72206D6F7265207468616E20004E48
:100560006F206D616E75666163747572696E672068
:1005700070726F6365647572657320657865637505
:100580007465642C20726573756D65206E6F726D75
:10059000616C206F7065726174696F6E0052656C7A
:1005A0006561736564207A2D73776974636800559B
:1005B0006E61626C6520746F2072656C6561736535
:1005C000207A2D737769746368206F6E20626F6F75
:1005D000742C2069676E6F72696E67005A2D73778D
:1005E00069746368206973207472696767657265EE
:1005F000642C2072616973696E67002C002C002CDA
:1006000000536B697070696E6720736B6577206348
:100610006F6D70656E736174696F6E20666F7220A6
:1006200000526573657474696E6720706C616E6EDC
:1006300065722773204520706F736974696F6E202F
:10064000746F20453A0020697320746F6F206869C9
:1006500067682000537465702072617465200024FF
:10066000F4D43050C38E20C2A24017828B70111276
:100670007A910D816CD90AA861E108C758660761B3
:100680005143061E4B5D05C145A7041A41110409DB
:100690003D9803713931034036DB0265339102D452
:1006A000305402802E1D02632CEE01752AC501B064
:1006B00028A001102781018F2564012B244B01E024
:1006C000223401AC211F018D200D01801FFC00840C
:1006D0001EED00971DDF00B81CD200E61BC60020EF
:1006E0001BBC00641AB200B219A8000A19A0006A63
:1006F000189900D117910040178B00B5168400316E
:10070000167E00B31579003A157300C7146F0058B0
:10071000146A00EE1366008813630025135E00C799
:10072000125B006C12570015125400C11151007079
:10073000114F0021114B00D61049008D1047004683
:1007400010440002104200C00F4000800F3E0042E3
:100750000F3C00060F3B00CB0E3800930E37005CB9
:100760000E3500270E3400F30D3200C10D3100901C
:100770000D3000600D2E00320D2D00050D2C00D91E
:100780000C2B00AE0C2900850C29005C0C270035D1
:100790000C27000E0C2600E80B2400C40B2400A03C
:1007A0000B23007D0B23005A0B2100390B2100186D
:1007B0000B2000F80A1F00D90A1E00BB0A1E009D6C
:1007C0000A1D00800A1D00630A1C00470A1B002C3A
:1007D0000A1B00110A1A00F7091A00DD091900C4E2
:1007E000091900AB091900920917007B0918006369
:1007F0000917004C09160036091600200916000AD0
:10080000091500F5081500E0081400CC081400B81C
:10081000081400A4081400900813007D0812006B4F
:10082000081300580812004608120034081100236B
:100830000811001208110001081100F0071000E073
:10084000071000D0071000C0071000B0070F00A16C
:1008500007100091070E0083070F0074070F006553
:10086000070E0057070E0049070E003B070D002E2C
:10087000070E0020070D0013070D0006070D00F9F5
:10088000060C00ED060D00E0060C00D4060C00C8B6
:10089000060C00BC060C00B0060C00A4060B009968
:1008A000060C008D060B0082060B0077060B006C11
:1008B000060B0061060A0057060B004C060A0042B0
:1008C000060A0038060A002E060A0024060A001A44
:1008D000060A001006090007060A00FD050900F4D3
:1008E000050900EB050900E2050900D9050900D05A
:1008F000050900C7050900BE050900B5050800ADDA
:10090000050800A50509009C050800940508008C51
:10091000050800840508007C050800740508006CC3
:10092000050700650508005D050700560508004E2F
:100930000507004705070040050800380507003196
:100940000507002A050700230507001C05060016F9
:100950000507000F0507000805060002050700FB54
:10096000040600F5040700EE040600E8040600E2B1
:10097000040700DB040600D5040600CF040600C906
:10098000040600C3040600BD040600B7040600B157
:10099000040500AC040600A6040600A00405009BA4
:1009A00004060095040500900406008A04050085ED
:1009B000040500800406007A040500750405007033
:1009C0000405006B04050066040500610405005C75
:1009D00004050057040500520405004D04050048B5
:1009E000040500430405003E0404003A04050035F4
:1009F000040500300404002C04050027040400232F
:100A00000405001E0404001A040400160405001165
:100A10000404000D0404000904050004040400009B
:100A2000040400FC030400F8030400F4030400F0D1
:100A3000030400EC030400E8030400E4030400E002
:100A4000030400DC030400D8030400D4030400D032
:100A5000030400CC030400C8030300C503030024FF
:100A6000F404D9201BC40C5C0E9804C4095F026511
:100A7000077101F405F900FB04B30048048700C1C5
:100A80000369005803550003034500BE023A008481
:100A900002310053022A002902250004022000E44A
:100AA000011C00C8011900AF01170098011400844F
:100AB000011300710110006101100051010E00438B
:100AC000010D0036010B002B010B0020010B00155E
:100AD0000109000C01090003010800FB000800F3F4
:100AE000000800EB000700E4000600DE000600D866
:100AF000000600D2000600CC000500C7000500C2B9
:100B0000000500BD000400B9000400B5000400B1F8
:100B1000000400AD000400A9000400A5000300A229
:100B20000003009F0004009B000300980003009551
:100B300000020093000300900003008D0002008B70
:100B40000003008800020086000200840003008188
:100B50000002007F0002007D0002007B000200799D
:100B600000020077000100760002007400020072AB
:100B7000000100710002006F0002006D0001006CB6
:100B80000002006A000100690002006700010066BF
:100B900000010065000100640002006200010061C4
:100BA000000100600001005F0002005D0001005CC8
:100BB0000001005B0001005A0001005900010058CB
:100BC00000010057000100560001005500010054CB
:100BD00000010053000000530001005200010051C9
:100BE000000100500001004F0001004E0000004EC7
:100BF0000001004D0001004C0001004B0000004BC3
:100C00000001004A000100490001004800000048BE
:100C100000010047000100460000004600010045B9
:100C200000000045000100440001004300000043B3
:100C300000010042000000420001004100000041AC
:100C4000000100400001003F0000003F0001003EA5
:100C50000000003E0001003D0000003D0001003C9E
:100C60000000003C0000003C0001003B0000003B95
:100C70000001003A0000003A00010039000000398C
:100C80000001003800000038000000380001003783
:100C9000000000370001003600000036000000367A
:100CA000000100350000003500000035000100346F
:100CB0000000003400000034000100330000003365
:100CC000000000330001003200000032000000325A
:100CD000000100310000003100000031000100304F
:100CE00000000030000000300001002F0000002F45
:100CF0000000002F0000002F0001002E0000002E39
:100D00000000002E0001002D0000002D0000002D2D
:100D10000000002D0001002C0000002C0000002C21
:100D20000000002C0001002B0000002B0000002B15
:100D30000000002B0001002A0000002A0000002A09
:100D40000000002A000100290000002900000029FD
:100D500000000029000000290001002800000028F0
:100D600000000028000000280000002800010027E3
:100D700000000027000000270000002700000027D7
:100D800000010026000000260000002600000026CA
:100D900000000026000100250000002500000025BD
:100DA00000000025000000250000002500010024AF
:100DB00000000024000000240000002400000024A3
:100DC0000001002300000023000000230000002396
:100DD0000000002300000023000000230001002287
:100DE000000000220000002200000022000000227B
:100DF000000000220001002100000021000000216D
:100E0000000000210000002100000021000000215E
:100E10000001002000000020000000200000002051
:100E20000000002000000020000000200000002042
:100E30000001001F0000001F0000001F0000001F35
:100E40000000001F0000001F0000001F0001001E26
:100E50000000001E0000001E0000001E0000003DFB
:100E60000061742000546F6F206D616E7920747280
:100E70006967676572206576656E74732C2064728D
:100E80006F7070696E67206576656E7420666F722C
:100E90000073796E6368726F6E697A6564004E657F
:100EA00077207461726765742054656D7065726136
:100EB000747572653A20004D6561737572696E676D
:100EC0002063616C6962726174696F6E20706C611D
:100ED000746500206973206F757473696465206F91
:100EE0006620746865206578706563746564207237
:100EF000616E676500556E61626C6520746F206D70
:100F00006561737572652070726F626520646973C4
:100F1000706C6163656D656E742C206D65617375B1
:100F20007265642076616C756520002C2070726F8C
:100F30006265436F6E746163745A3D002C20706C5F
:100F40006174655A3D004D6561737572696E672005
:100F500070726F626520646973706C6163656D6542
:100F60006E74206F6620007468652074726967670C
:100F70006572696E6720706F736974696F6E206F38
:100F800066207468652070726F626520636F756C8F
:100F900064206E6F74206265206D65617375726583
:100FA0006420286D6561737572656D656E7420329D
:100FB000206F6620322900556E61626C6520746F67
:100FC000206D6561737572652070726F6265206453
:100FD0006973706C6163656D656E742C20004D657E
:100FE00061737572696E67207468652074726967D1
:100FF000676572696E6720706F7369746F6E206FBA
:1010000066207468652070726F6265007468652080
:1010100063616C6962726174696F6E20706C617477
:101020006520636F756C64206E6F74206265206D3F
:101030006561737572656420286D6561737572658D
:101040006D656E742031206F6620322900556E6107
:10105000626C6520746F206D6561737572652070B8
:10106000726F626520646973706C6163656D656E33
:10107000742C2000556E61626C6520746F206D6564
:1010800061737572652070726F6265206469737038
:101090006C6163656D656E742C2070726F62652083
:1010A0006E6F74206174746163686564004D65617E
:1010B000737572696E672070726F62652064697300
:1010C000706C6163656D656E740020616E6420787C
:1010D000792D737065656420002077697468207AC3
:1010E0002D737065656420002C002C0020746F2027
:1010F000002C002C00556E61626C6520746F2063BB
:101100006F6D706C6574652063726F73732D706C96
:10111000616E65732066726F6D005D006D6D2C20D1
:101120006D6561737572656D656E7473203D205BCE
:101130000020776173206C657373207468616E2082
:101140000020746F2000556E61626C6520746F2002
:10115000636F6D706C657465206261636B2073777B
:10116000697463682073657061726174696F6E2061
:10117000636865636B2C2064697374616E636520BA
:1011800066726F6D20005D005D20794D696E203DB7
:10119000205B005D207879506F736974696F6E65AC
:1011A000724261636B203D205B00636865636B2066
:1011B0006261636B20737769746368207365706123
:1011C000726174696F6E206D6561737572656D65AE
:1011D0006E7473203D205B006D6D20746F6C6572C2
:1011E000616E6365007768696368206973206D6F5D
:1011F0007265207468616E20746865200073746580
:1012000070732920006D6D20287E00646966666514
:101210007220627920005D20002C20002C206D655A
:1012200061737572656D656E7473203D205B00554A
:101230006E61626C6520746F20636F6D706C657495
:101240006520636865636B206F6620002C206465F1
:101250006C74613D002C206D323D002C206D313DC1
:1012600000592D6178697320657874656E74202D3E
:1012700020646961676F6E616C20746F2066726FA5
:101280006E7420726967687400582D6178697320E4
:10129000657874656E74202D20646961676F6E6176
:1012A0006C20746F2066726F6E7420726967687448
:1012B00000592D6178697320657874656E74202DEE
:1012C00020646961676F6E616C20746F2066726F55
:1012D0006E74206C65667400582D617869732065A2
:1012E0007874656E74202D20646961676F6E616C1F
:1012F00020746F2066726F6E74206C65667400597E
:101300002D6178697320657874656E74202D206175
:101310006C6F6E67206C6566742D73696465005927
:101320002D6178697320657874656E74202D206155
:101330006C6F6E672072696768742D7369646500ED
:10134000582D6178697320657874656E74202D203E
:101350006163726F73732066726F6E7400582D61D3
:1013600078697320657874656E74202D20616372CE
:101370006F7373206261636B00556E61626C6520F0
:10138000746F20636F6D706C65746520646961674C
:101390006E6F737469632070726F636564757265D4
:1013A0002C205A2D737769746368207265706F7290
:1013B000746564206173202774726967676572655C
:1013C00064272061667465722072616973696E6753
:1013D0002063617272696167650053746172746938
:1013E0006E6720646961676E6F73746963207072E1
:1013F0006F63656475726500446961676E6F7374CD
:1014000069632070726F63656475726520636F6DC8
:10141000706C65746564207375636365737366755A
:101420006C6C7900446961676E6F737469632070D6
:10143000726F636564757265206661696C656400CE
:10144000556E61626C6520746F20636F6D706C65A2
:101450007465206275726E2D696E20736571756595
:101460006E63650053746F72696E67207365747480
:10147000696E67732E2E2E00556E61626C65207446
:101480006F2063616C69627261746520706F73694B
:1014900074696F6E732C20636F756C64206E6F744B
:1014A000207465737420636F6D707574656420704B
:1014B0006F736974696F6E206F66207A2D73776918
:1014C00074636800556E61626C6520746F2063619F
:1014D0006C69627261746520706F736974696F6E94
:1014E000732C20636F756C64206E6F74207072654E
:1014F000706172652070726F6265007265736574E9
:1015000074696E67206D6178207A20746F2064653D
:101510006661756C74002D6178697320686F6D6504
:101520006420737461746520746F20007365742087
:1015300000207A3A0020793A0020783A00686F6DEE
:101540006564537461747573557064617465006586
:1015500069746865722074686520782D6178697394
:10156000206F722074686520792D61786973206816
:101570006173206E6F74206265656E20686F6D65A3
:101580006400556E61626C6520746F206D6F7665C6
:1015900020746F205A2D5377697463682C20004D96
:1015A0006F766520746F207A2D737769746368276E
:1015B0007320782C7920706F736974696F6E007373
:1015C000657474696E67206D6178696D756D205AF8
:1015D00020706F736974696F6E20746F2000646986
:1015E0007374616E6365206265747765656E207AD9
:1015F0004D617820616E64207A5377697463682046
:1016000069732000556E61626C6520746F20686F8D
:101610006D65207A2D617869732C20636F756C6419
:10162000206E6F74206D6561737572650044455658
:10163000202D207A5377697463682064657465632C
:101640007465642061742000556E61626C6520745D
:101650006F20686F6D65207A2D617869732C206327
:101660006F756C64206E6F74206D65617375726543
:10167000206D6178696D756D2068656967687400B3
:10168000556E61626C6520746F20686F6D65207A9D
:101690002D617869732C20636F756C64206E6F7494
:1016A000206D6F766520746F207A2D73776974636F
:1016B0006800686F6D696E67207A2D6178697300C4
:1016C0004D6561737572656D656E743A20002073A7
:1016D00077697463682C2073776974636820646920
:1016E00064206E6F74207472696767657220647518
:1016F00072696E67207365636F6E642061707072CB
:101700006F61636800556E61626C6520746F206D57
:1017100065617375726520617420002C2073776990
:1017200074636820646964206E6F742074726967E2
:1017300067657220647572696E6720696E69746985
:10174000616C20617070726F61636800556E6162D8
:101750006C6520746F206D656173757265206174AE
:1017600020004D656173757265206174207377691F
:101770007463683A20002C20706F736974696F6E0F
:101780003A20002C20636F756E743A20005D2C2087
:101790006475726174696F6E3A2000636F756E7460
:1017A000547269676765727320766F6C74616765E0
:1017B000733A205B00206973206E6F74207375701C
:1017C000706F727465642C2072657475726E696EC8
:1017D0006720300053616D706C696E6720766F6CA6
:1017E00074616765206F6620006D6D206F662074E0
:1017F000726176656C002C2073776974636820646D
:101800006964206E6F742072656C65617365206118
:10181000667465722000556E61626C6520746F207D
:101820006D6561737572652061742072656C6561A8
:101830007365206F66200052657472616374206264
:10184000793A20004D65617375726520617420736B
:1018500077697463682072656C656173653A20000E
:10186000746F756368206475726174696F6E3A2075
:1018700000206973206E6F74207265636F676E69F4
:101880007A6564202D2064656661756C74696E6785
:1018900020746F20612076616C7565206F66203042
:1018A00000556E61626C6520746F206465746572AA
:1018B0006D696E65206D61782074726176656C204B
:1018C00064697374616E636520666F722061786904
:1018D000732C20617869732000556E61626C6520FD
:1018E000746F20706572666F726D206D6F76656DB6
:1018F000656E742C2000556E61626C6520746F20DB
:10190000706572666F726D206D6F76656D656E7451
:101910002C200020463A0020453A00205A3A002068
:10192000593A0020583A004D6F766500206C696D79
:1019300069742C206C696D697420737769746368AD
:1019400020646964206E6F742074726967676572C1
:1019500000556E61626C6520746F206D6F76652036
:10196000746F20004D6F766520746F206C696D690F
:10197000743A20002C20737769746368206469646A
:10198000206E6F74207472696767657200556E61AE
:10199000626C6520746F206D6F766520746F200017
:1019A0004D6F766520746F20656E642D73746F7053
:1019B0003A2000556E61626C6520746F206D6F7601
:1019C0006520746F20726169736520746F206D618A
:1019D00078206865696768742C2063757272656E1B
:1019E0007420746F6F6C20686173206E6F74206256
:1019F00065656E20686F6D656420696E207A002CC5
:101A00002073776974636820646964206E6F742042
:101A100072656C6561736520647572696E672072AA
:101A2000657472616374206D6F76656D656E7400A8
:101A3000556E61626C6520746F20726574726163AB
:101A4000742066726F6D2000526574726163742039
:101A500062793A2000526574726163742066726F15
:101A60006D20002D617869732C20706F7369746923
:101A70006F6E2066616C6C73206F7574736964653A
:101A8000206F66207361666520626F756E647300F7
:101A900020696E2000556E61626C6520746F206D48
:101AA0006F766520746F2000456E6473746F7020CC
:101AB00068697420647572696E6720782C79206D6E
:101AC0006F76656D656E7400456E6473746F70201B
:101AD00068697420647572696E67207A206D6F760C
:101AE000656D656E74002720697320726571756974
:101AF000726564002C20746F6F6C2074797065209F
:101B00002700556E61626C6520746F200020593A81
:101B10002000204D6561737572656420583A20007D
:101B200020593A200043616C6962726174656420D7
:101B3000583A200043616C63756C61746564205889
:101B4000592063656E7465722069732076657279B9
:101B500020646966666572656E74207468616E20C3
:101B600063616C696272617465642E20004D6F76EA
:101B70006520746F20787920706F736974696F6E57
:101B800065720020007468652063757272656E74FA
:101B900020746F6F6C206973206120002073776957
:101BA000746368202D2D20007468652000207377F1
:101BB000697463682074726967676572656420621E
:101BC00065666F7265207265616368696E67200083
:101BD000546865200020793A0020783A0044455640
:101BE000202D2058592063656E7465720020793A63
:101BF00000206D323A00206D313A007879506F73D1
:101C00006974696F6E657243656E74657259002000
:101C1000783A00206D323A00206D313A00787950E0
:101C20006F736974696F6E657243656E746572581F
:101C30000046696E642063656E746572206F66206D
:101C4000787920706F736974696F6E657200230014
:101C50002C0133000E01360009013A0004013B005B
:101C600002013D0000013F00FE004000FC00420078
:101C7000FA004300F9004400F8004500F700460070
:101C8000F6004700F5004800F4004900F3004A0060
:101C9000F2004B00F1004C00F0004D00EF004E0050
:101CA000EE004F00ED005000EC005100EB00520040
:101CB000EA005400E9005500E8005600E70057002C
:101CC000E6005900E5005A00E4005B00E3005C0018
:101CD000E2005E00E1005F00E0006100DF00620002
:101CE000DE006300DD006500DC006600DB006800EC
:101CF000DA006A00D9006B00D8006D00D7006E00D2
:101D0000D6007000D5007200D4007300D3007500B7
:101D1000D2007700D1007900D0007B00CF007D0099
:101D2000CE007E00CD008000CC008200CB0084007D
:101D3000CA008600C9008800C8008B00C7008D005B
:101D4000C6008F00C5009100C4009300C300960038
:101D5000C2009800C1009A00C0009D00BF009F0013
:101D6000BE00A200BD00A400BC00A700BB00AA00EA
:101D7000BA00AC00B900AF00B800B200B700B500BF
:101D8000B600B800B500BB00B400BE00B300C1008F
:101D9000B200C400B100C700B000CA00AF00CD005F
:101DA000AE00D000AD00D400AC00D700AB00DB002B
:101DB000AA00ED00A5000001A0002C0196005F0123
:101DC0008C00D6017800F80173001A026E00280218
:101DD0006C0036026A00440268005202660060022B
:101DE00064006E0262007C0260008A025E0098025B
:101DF0005C00A6025A00C8025500E9025000F60233
:101E00004E0002034C000F034A001B034800260348
:101E10004600320344003D034200480340005203A1
:101E20003E005C033C0066033A006F033800780311
:101E3000360081033400890332009C032D00AC037B
:101E40002800BB032300C7031E00CA031D00CC03E8
:101E50001C00CE031B00D0031A00D2031900D403C8
:101E60001800D6031700D8031600D9031500DB03AA
:101E70001400E3030F00E9030A00EE030500F20378
:101E800000002C2020002C20200020200056616C17
:101E9000756573202D2D20766F6C746167652C201D
:101EA000737461727454696D652C20656E64546935
:101EB0006D6500292C207573696E67206D617869E6
:101EC0006D756D002920657863656564732074689D
:101ED00065206D6178696D756D20280054686520F6
:101EE000726571756573746564206E756D62657277
:101EF000206F66206379636C65732028002C202096
:101F0000002C20200020200056616C756573202D68
:101F10002D2074656D706572617475726528432932
:101F20002C20737461727454696D652C20656E6425
:101F300054696D6500292C207573696E67206D6189
:101F400078696D756D002920657863656564732017
:101F5000746865206D6178696D756D20280054681E
:101F60006520726571756573746564206E756D6248
:101F70006572206F66206379636C6573202800208A
:101F8000200056616C756573202D2D207472696771
:101F9000676572656400556E61626C6520746F20C0
:101FA000636F6D706C657465206469676974616CDA
:101FB0002072656164206F6620702D746F702070D0
:101FC000696E002920646F6573206E6F74207375CD
:101FD00070706F7274206469676974616C207265D7
:101FE00061647300206D6F6465202800556E616226
:101FF0006C6520746F207265616420646967697420
:10200000616C2076616C7565206F6620702D746F31
:10201000702070696E2C2000292C207573696E6702
:10202000206D6178696D756D00292065786365653F
:10203000647320746865206D6178696D756D202802
:102040000054686520726571756573746564206EEF
:10205000756D626572206F66206379636C657320AD
:102060002800202D2062656454656D70657261746E
:1020700075726500202D20702D746F702064696763
:102080006974616C2C2000202D20702D746F7020DD
:10209000616E616C6F672C20002C2076616C696426
:1020A0002070696E73206172653A200049676E6F17
:1020B00072696E6720756E7265636F676E697A65A7
:1020C000642070696E20002020004D6F746F7220B4
:1020D00073746174757300544F444F3A20626564A1
:1020E0002068656967687420657374696D617469D7
:1020F0006F6E206973206E6F7420696D706C656DF2
:10210000656E7465642C20617373756D696E6720EC
:102110006120686569676874206F66202D312E30F4
:102120006D6D0000202044313131202D2063686521
:10213000636B20657874656E7473206F6620766FAC
:102140006C756D6520696E205820616E6420592081
:102150002D2D2044313131206F7220443131312016
:1021600054302E3030312C20746F206F76657272AF
:102170006964652064656661756C7420746F6C6554
:1021800072616E636500202044313130202D207350
:102190006574206472696C6C20726F746174696F0D
:1021A0006E207370656564202D2D20443131302000
:1021B000523130302C206E6F2076616C7565206F47
:1021C000722031206D65616E732073746F702C20E6
:1021D0003020726573657473206472696C6C0020C2
:1021E0002044313039202D20636865636B206C6F8B
:1021F000636174696F6E206F662078792D706F73DC
:102200006974696F6E65722773206261636B2073F6
:102210007769746368202D2D2044313039002020E7
:1022200044313038202D206D6561737572652061F1
:1022300074207377697463682072656C6561736577
:10224000202D2D2044313038202D5A0020204431BB
:102250003036202D2073616D706C652070696E20A2
:1022600076616C7565732028503D70696E20433D22
:102270006379636C6573204D3D6D696C6C69736542
:10228000636F6E6473206265747765656E20726536
:102290006164696E677329202D2D2044313036200A
:1022A000503220433130204D352000202044313041
:1022B00035202D206D656173757265206174207302
:1022C000776974636820284920746F2069676E6F8E
:1022D000726520612070696E29202D2D20443130D7
:1022E000352050363200202044313034202D206DEE
:1022F0006561737572652070726F626520646973C1
:10230000706C6163656D656E7400202044313033FC
:10231000202D20787920706F736974696F6E6572F3
:10232000202D2D2044313033206F72204431303342
:10233000204D20286D6F76652D6F6E6C79290020F9
:102340002044313032202D20486F6D652058206F99
:10235000722059202D2D2044313032206F722044BC
:1023600031303220585900202044313031202D2086
:102370007072657061726520746F6F6C20746F206D
:102380006D6F766500416C676F726974686D73007C
:102390000020204435202D207374657070657220F4
:1023A00073746F702F726573756D65202D2D2044C9
:1023B0003520453120746F20726573756D652C2052
:1023C000453020746F2073746F702C206E6F206105
:1023D00072677320666F7220737461747573002066
:1023E000204433202D20546F67676C6520766F6C16
:1023F00074616765206C6F6767696E6720666F72CE
:1024000020706F676F2070696E7300202044322047
:102410002D204F7574707574207374617475732CEE
:1024200020696E636C7564696E6720737769746385
:1024300068657320616E642073746174730020207A
:102440004431202D20546F67676C65206C6F67677F
:10245000696E67204F4E2F4F46462028646566619F
:10246000756C743A204F4646290047656E65726167
:102470006C20436F6D6D616E6473002020466F7237
:10248000206D616E75616C20646562756767696E49
:10249000672E207375626A65637420746F206368A9
:1024A000616E676500442D436F6D6D616E647300EE
:1024B0004D757374207370656369667920746F6FEE
:1024C0006C00206973206E6F7420737570706F726A
:1024D00074656420666F72207468697320636F6D21
:1024E0006D616E64002000556E61626C6520746FD2
:1024F00020636865636B206261636B207377697426
:10250000636865732C2063757272656E7420746FD6
:102510006F6C2C20002C207374617274506F73697F
:1025200074696F6E3A002C2072656C656173654347
:102530006F6D706C6574656441743A002C2072652F
:102540006C656173655374617274656441743A00BB
:102550002C2072657475726E56616C75653A002C2C
:102560002064656C61793A002C2073776974636824
:102570003A006D6561737572654174537769746370
:102580006852656C6561736500556E6B6E6F776E32
:102590002070696E2070726F76696465643A2000FD
:1025A0004E6F2070696E2070726F7669646564008A
:1025B0002920697320002C20004265642068656929
:1025C000676874206174202800206D6561737572DE
:1025D000656D656E743A00207377697463683A00BC
:1025E0002072657475726E56616C75653A006D6522
:1025F00061737572654174537769746368002075FF
:102600006E74696C20656E64206F6620636F6D6DFB
:10261000616E640049676E6F72696E672000556E67
:102620006B6E6F776E2070696E2070726F76696462
:1026300065642028746F2069676E6F7265293A207F
:1026400000556E6B6E6F776E2070696E2070726FC2
:1026500076696465643A20004E6F2070696E207060
:10266000726F76696465640020646973706C61637D
:10267000656D656E743A002072657475726E566190
:102680006C75653A006D65617375726550726F6245
:1026900065446973706C6163656D656E7400207963
:1026A0003A0020783A00206379636C65733A002021
:1026B00072657475726E56616C75653A0078795002
:1026C0006F736974696F6E657246696E6443656E97
:1026D0007465720072656164790073746F707065FF
:1026E00064005374657070657220697320006D6FAB
:1026F00076656D656E74206578706C696369746C5D
:10270000792073746F70706564206279204435207D
:10271000636F6D6D616E640053746F7070696E6786
:10272000207374657070657200526573756D696EA3
:10273000672073746570706572004F4646004F4E97
:1027400000566F6C74616765206C6F6767696E67B0
:1027500020004F4646004F4E004C6F6767696E671A
:10276000200078795F6D61785F793A200078795F31
:102770006D696E5F793A200078795F6D61785F7876
:102780003A200078795F6D696E5F783A20007A5F51
:102790006D696E3A2000705F626F743A2000705F5E
:1027A000746F703A20007A5F6D61783A20006F7024
:1027B000656E0054524947474552454400795F6D64
:1027C000696E3A2000785F6D696E3A20005265703C
:1027D0006F7274696E6720656E6473746F702073B6
:1027E00074617475730043616E6E6F7420617070F4
:1027F000656E6420746F2068656174696E6720700F
:10280000726F66696C652E205175657565206675F9
:102810006C6C00496E76616C6964206475726174D9
:10282000696F6E2072656365697665643A20004958
:102830006E76616C69642074656D70657261747523
:10284000726520746172676574207265636569766C
:1028500065643A2000204475726174696F6E3A2095
:102860000043616E6E6F7420696E7465727072657C
:10287000742068656174696E672070726F66696C38
:10288000652E2054656D70657261747572653A20AD
:102890000053706565642073657474696E67732096
:1028A00073746F72656400204500205A0020580040
:1028B00020420020540020204D323035205300416A
:1028C0006476616E636564207661726961626C65CD
:1028D000733A20533D4D696E20666565647261747C
:1028E0006520286D6D2F73292C20543D4D696E2075
:1028F00074726176656C20666565647261746520CA
:10290000286D6D2F73292C20423D6D696E696D75A0
:102910006D207365676D656E742074696D65202820
:102920006D73292C20583D6D6178696D756D205847
:1029300059206A65726B20286D6D2F73292C202019
:102940005A3D6D6178696D756D205A206A65726BAC
:1029500020286D6D2F73292C2020453D6D617869ED
:102960006D756D2045206A65726B20286D6D2F7323
:10297000290020540020204D323034205300416380
:1029800063656C65726174696F6E3A20533D616373
:1029900063656C65726174696F6E2C20543D72655D
:1029A000747261637420616363656C6572617469DC
:1029B0006F6E00204500205A0020590020204D3223
:1029C00030312058004D6178696D756D2041636329
:1029D000656C65726174696F6E20286D6D2F73323E
:1029E000293A00204500205A0020590020204D326D
:1029F00030332058004D6178696D756D20666565CE
:102A000064726174657320286D6D2F73293A0020FC
:102A10004500205A0020590020204D39322058000E
:102A200053746570732070657220756E69743A0016
:102A300020204D323035202D20616476616E636533
:102A4000642073657474696E67733A20206D696ED3
:102A5000696D756D2074726176656C207370656543
:102A60006420533D7768696C65207072696E746983
:102A70006E6720543D74726176656C206F6E6C7960
:102A80002C2020423D6D696E696D756D2073656700
:102A90006D656E742074696D6520583D206D617898
:102AA000696D756D207879206A65726B2C205A3DAE
:102AB0006D6178696D756D205A206A65726B2C2086
:102AC000453D6D6178696D756D2045206A65726B55
:102AD00000202020202020202020616C736F207394
:102AE000657473206D696E696D756D207365676DB2
:102AF000656E742074696D6520696E206D73202881
:102B00004232303030302920746F20707265766523
:102B10006E742062756666657220756E6465722DCE
:102B200072756E7320616E64204D3230206D696E57
:102B3000696D756D2066656564726174650020203D
:102B40004D323034202D20536574206465666175E4
:102B50006C7420616363656C65726174696F6E3A51
:102B60002053206E6F726D616C206D6F76657320DF
:102B7000542066696C616D656E74206F6E6C79208F
:102B80006D6F76657320284D3230342053333030EA
:102B9000302054373030302920696E206D6D2F730E
:102BA00065635E320020204D323033202D20536586
:102BB00074206D6178696D756D20666565647261FC
:102BC0007465207468617420796F7572206D61631B
:102BD00068696E652063616E207375737461696ED8
:102BE00020284D32303320583230302059323030A6
:102BF000205A333030204531303030302920696E52
:102C0000206D6D2F7365630020204D323031202DF3
:102C100020536574206D617820616363656C657213
:102C20006174696F6E20696E20756E6974732F739D
:102C30005E3220666F72207072696E74206D6F76DE
:102C4000657320284D3230312058313030302059D2
:102C500031303030290020204D393036202D206F82
:102C6000757470757420647269766572206375720C
:102C700072656E742073657474696E6773002020CA
:102C80004D353230202D206F75747075742063615E
:102C90006C6962726174656420706F736974696FC6
:102CA0006E7320616E6420666163746F72730020BE
:102CB000204D393220202D205365742061786973AE
:102CC0002073746570732070657220756E6974204E
:102CD0002D2073616D652073796E74617820617346
:102CE0002047393200496E7465726E616C207573CD
:102CF000650020204D363031202D207A2D737769E4
:102D0000746368207265706C6163656D656E7420B4
:102D1000285330206F726967696E616C2C205331C3
:102D2000207374726F6E67657220737072696E675C
:102D30002C20532D31207573652064656661756C98
:102D40007429202D2D204D36303120533100496E0D
:102D50006669656C642055706772616465730020F4
:102D6000204D353033202D206F75747075742063BD
:102D70006F6E66696775726174696F6E0020204DB1
:102D8000353032202D2072657665727420746F2084
:102D9000666163746F72792064656661756C7473C3
:102DA00020287374696C6C206E65656420746F20D4
:102DB000777269746520746F20454550524F4D29D4
:102DC0000020204D353031202D207265616420288F
:102DD00069652E2072657365742920636F6E66695C
:102DE0006775726174696F6E2066726F6D204545FC
:102DF00050524F4D0020204D353030202D2077721D
:102E000069746520636F6E66696775726174696F56
:102E10006E20746F20454550524F4D00436F6E66D3
:102E2000696775726174696F6E0020202020202010
:102E300020202073657420696E61637469766974FB
:102E4000792074696D656F757420696E2073656390
:102E50006F6E6473202D2D204D3138205336302C69
:102E600020533020746F2064697361626C650020A8
:102E7000204D313820202D2044697361626C65201B
:102E80006D6F746F727320756E74696C206E6578E7
:102E900074206D6F7665202D2D204D3138205820FF
:102EA00059205A2045206F72204D313820666F72AC
:102EB00020616C6C0020204D313720202D20456E84
:102EC00061626C652028506F7765722920616C6C97
:102ED0002073746570706572206D6F746F7273000B
:102EE0004D6F746F72730020204D313235202D20CC
:102EF0004F75747075742063757272656E742050AE
:102F0000726F62652073746174757320746F2073BF
:102F1000657269616C20706F72740020204D3131D0
:102F200039202D204F7574707574206C696D69742B
:102F300020737769746368207374617475730020FB
:102F4000204D313135202D204F75747075742076E9
:102F5000657273696F6E20737472696E67002020EA
:102F60004D313134202D204F757470757420737479
:102F7000617475732028706C616E6E657220616E6D
:102F800064207374657070657220706F7369746902
:102F90006F6E2C20717565756564206D6F76657335
:102FA0002C206574632900537461747573002020AC
:102FB0004D313432202D2053746F70206865617458
:102FC000696E6720616E6420646973636172642056
:102FD00068656174696E672070726F66696C650000
:102FE00020204D313431202D20417070656E6420D9
:102FF000612074656D706572617475726520616EB3
:1030000064206475726174696F6E20746F207468D7
:10301000652068656174696E672070726F66696C9F
:103020006520286D617820313020636F6D6D616E91
:10303000647329202D2D204D31343120543230300D
:10304000204436300020204D313035202D204F7562
:10305000747075742063757272656E742074656D1A
:1030600070657261747572650054656D706572612A
:10307000747572650020204D393320202D204D615C
:103080006E75616C6C7920636F6E74726F6C204C1E
:103090004544732E2053657420746865205247425E
:1030A000204C454473207573696E6720525B312D47
:1030B0003235355D20475B312D3235355D20425B41
:1030C000312D3235355D0020204D343030202D201B
:1030D00046696E69736820616C6C206D6F766573EC
:1030E000005574696C6974696573002020436F6EC4
:1030F00066696775726174696F6E2C2074656D7096
:103100006572617475726520636F6E74726F6C2086
:10311000616E64205574696C69747920636F6D6D9C
:10312000616E6473004D2D436F6D6D616E6473004D
:103130002020453A0020205A3A002020593A004DDC
:1031400039303420583A0053746570706572202D00
:1031500020445256535441545553002020453A00C0
:1031600020205A3A002020593A004D393033205857
:103170003A0053746570706572202D204753544196
:1031800054002020453A0020205A3A002020593A85
:10319000004D39303220583A0053746570706572B2
:1031A000202D205374616C6C204775617264205629
:1031B000616C75657320282D36342E2E2E302E2E00
:1031C0002E203633290053746570706572202D20CF
:1031D000536574205374616C6C67756172642076FA
:1031E000616C75652028692E65202D204D3930329F
:1031F0002058302059363029002020453A00202020
:103200005A3A002020593A004D39303120583A00BE
:1032100053746570706572202D2041637475616C04
:103220002054537465703A2028333220626974291F
:10323000002020453A0020205A3A002020593A0028
:103240004D39303020583A005374657070657220E3
:103250002D2043757272656E742056616C756573AE
:1032600020284D61783A20333229005374657070FC
:103270006572202D205365742063757272656E74BB
:1032800020696E206D696C6C69616D7073202869AE
:103290002E65202D204D39303020583230302059C5
:1032A00033303029002C207265626F6F7420666F96
:1032B00072206368616E676520746F2074616B654E
:1032C000206566666563740053657474696E672073
:1032D0005A2D537769746368207479706520746F10
:1032E0002000543A3020453A3020423A0050726F64
:1032F0006265204D6F756E7465640054726967670E
:1033000065726564004E6F74204D6F756E746564F0
:103310000050726F62653A2000562D4F6E65206234
:103320007920566F6C7465726120287777772E76D6
:103330006F6C746572612E696F292E204669726DFB
:10334000776172653A200020483A0020423A002016
:103350005A3A0020593A00204162736F6C757465C7
:1033600020583A00205A3A0020593A0020436F75FD
:103370006E7420583A200020453A00205A3A002026
:10338000593A00583A002042403A0020403A300072
:10339000202F0020423A00202F302E3000543A30A7
:1033A0002E300020287573696E672064656661752C
:1033B0006C74206D6178207A290020287573696EFD
:1033C0006720736F6674206D6178207A29002074FD
:1033D0006F2000207A3A0020746F200020793A0094
:1033E00020746F200020783A004178697320726160
:1033F0006E67657300207A3A0020793A0020783AA7
:1034000000486F6D696E6700206D6F766573506C54
:10341000616E6E65643A00506C616E6E657200207C
:10342000653A00207A3A0020793A0020783A005331
:10343000746570706572436F756E74730020653AC1
:1034400000207A3A0020793A0020783A00537465D7
:1034500070706572506F736974696F6E0020453AC1
:1034600000205A3A0020593A0020583A00506F7311
:103470006974696F6E0029206578636565647320DF
:103480006D6178696D756D2C2000556E61626C659B
:1034900020746F2070726F626520686F6C652C20DD
:1034A0007265717569726564206E756D62657220F2
:1034B0006F66206D6561737572656D656E747320DE
:1034C00028002020202056313130202D20736574B3
:1034D000206472696C6C20726F746174696F6E2005
:1034E0007370656564202D2D2056313130205231A6
:1034F00030302C206E6F2076616C7565206F7220E5
:1035000030206D65616E732073746F700020202011
:1035100020563130312052202D206174746163684F
:10352000206472696C6C2C20696E636C7564652014
:1035300027462720746F20666F7263652063686179
:103540006E67650020204472696C6C00202020208A
:1035500056323131202D2050726F626520686F6CB9
:10356000652077697468206469616D65746572208F
:10357000442063656E746572656420617420582C04
:1035800059202864656661756C7420746F206375BA
:103590007272656E7420706F736974696F6E292022
:1035A0002D2D20563231312044312E300020202064
:1035B0002056323031202D20453120746F20656E29
:1035C00061626C652C20453020746F2064697361E2
:1035D000626C6520686569676874207361666574EC
:1035E00079202D2D205632303120453100202020E9
:1035F0002056342020202D2050726F626520706F7D
:10360000696E742061742063757272656E742070C7
:103610006F736974696F6E20287265747261637468
:103620002062792070726F626520646973706C61CA
:1036300063656D656E74202B205229202D2D205638
:1036400034205231002020202056313031205020AB
:103650002D206174746163682070726F62652C2024
:10366000696E636C7564652027462720746F206639
:103670006F726365206368616E6765002020507219
:103680006F6265002020202056313032202D2073BB
:1036900065742064697370656E7365206865696719
:1036A000687420286D75737420686176652064697C
:1036B0007370656E736572206174746163686564AC
:1036C00029202D2D2056313032205A302E313430E1
:1036D0000020202020563130312044202D206174DC
:1036E000746163682064697370656E7365722C2001
:1036F000696E636C7564652027462720746F2066A9
:103700006F726365206368616E676500202044699D
:103710007370656E73657200202020205631303141
:10372000202D2064657461636820746F6F6C20289D
:10373000692E652E2073657420746F6F6C20746F12
:10374000206E6F6E65292C20617474616368206F30
:103750007074696F6E73206C697374656420626540
:103760006C6F772C20696E636C7564652027462723
:1037700020746F20666F726365206368616E676591
:10378000002020202056313030202D20546F6F6CC7
:103790002073746174757300202047656E657261D3
:1037A0006C00546F6F6C20436F6D6D616E647300BD
:1037B0002020563534202D20676F20746F207468C8
:1037C000652078792D706F736974696F6E6572000A
:1037D0002020563533202D20676F20746F207468A9
:1037E00065207A2D7377697463680020205635321E
:1037F000202D20726169736520746F20736F667469
:10380000206D6178207468656E20676F20746F206A
:10381000302C30002020563531202D207261697304
:103820006520746F20736F6674206D617820286442
:103830006F6573206E6F742068697420656E6473A1
:10384000746F7029004C6F636174696F6E20436FF1
:103850006D6D616E64730020205635202D207261DD
:103860006973652C20686F6D652058592C20616E36
:103870006420726573657420746F6F6C207072655C
:103880007061726174696F6E73202D2D2056350042
:1038900020205633202D204D6F766520756E74697B
:1038A0006C206C696D697420737769746368207427
:1038B00072696767657273202D2D205633202D584D
:1038C000202D59202D5A20463630303000202056E9
:1038D00032202D2052656C6174697665204D6F76BB
:1038E000652F44697370656E7365202D2D205632E7
:1038F000205835205933205A2D3120453220463664
:103900003030300020205631202D204D6F76652F2D
:1039100044697370656E7365202D2D2056312058D3
:103920003130302059313030205A31302045333059
:103930002046363030300020205630202D204D6F6C
:1039400076656D656E7420737461747573004D6F68
:1039500076656D656E7420436F6D6D616E64730086
:1039600020206175746F6D61746963616C6C79207E
:10397000686F6D652C2063616C696272617465208B
:10398000746F6F6C2C206574632E206966206E65E1
:103990006564656420002020736D61727420636F1C
:1039A0006D6D616E647320746F2073696D706C69E6
:1039B000667920696E746572616374696F6E732EC7
:1039C00020546865736520636F6D6D616E6473204C
:1039D00077696C6C00562D436F6D6D616E6473007A
:1039E0005D207D207D00002C2000207D002C2022E9
:1039F0007A223A002C202279223A007B2022782257
:103A00003A00226D6561737572656D656E7473221F
:103A10003A205B00222C00226964223A2022007B9B
:103A2000202270726F6265486F6C654D65617375B9
:103A300072656D656E74223A207B2000556E61625E
:103A40006C6520746F2070726F626520686F6C65A2
:103A50002C2074686520676976656E206469616DE5
:103A600065746572206D7573742062652067726578
:103A700061746572207468616E207A65726F0020CF
:103A8000207A3A20002020793A20002020783A201D
:103A900000486F6D696E6700202053706565643A59
:103AA00020004472696C6C00202064697370656E3C
:103AB0007365206865696768743A200044697370AB
:103AC000656E736572002020707265706172656446
:103AD0003A2000202076657273696F6E3A200020CC
:103AE00020747970653A2000546F6F6C002069640F
:103AF0003A0020746F7563686573557365643A00A6
:103B00002073616D706C657354616B656E3A002053
:103B1000646973706C6163656D656E743A00207AD8
:103B20003A0020793A0020783A0070726F62654D51
:103B30006561737572656D656E74002000556E6108
:103B4000626C6520746F2070726F62652C206375E3
:103B50007272656E7420746F6F6C206973206120BF
:103B600000556E61626C6520746F20706572666FBF
:103B7000726D206D6F76656D656E742C2044206FBC
:103B80007074696F6E2063616E206E6F7420626561
:103B9000206170706C69656420756E6C657373204C
:103BA0005A20697320676976656E00202D3E2000DB
:103BB000202A2000202B20003A20004170706C79D0
:103BC000696E67206261636B6C61736820636F6DFF
:103BD00070656E736174696F6E20746F20002C20A5
:103BE0006E6F772061743A20002C0029002C002C85
:103BF00000280020746F200020646567726565737B
:103C00002C207768696368206973206F7574736905
:103C10006465206F662074686520657870656374DC
:103C200065642072616E67652C2000556E61626C60
:103C30006520746F206F70657261746520686561BE
:103C40007465722C2063757272656E742074656D74
:103C5000706572617475726520697320005D006D16
:103C6000732C20766F6C7461676573203D205B0058
:103C70002061667465722000566F6C746167652000
:103C8000747970652073746162696C697A65642007
:103C9000746F20005D006D732C20766F6C7461670B
:103CA0006573203D205B00566F6C746167652074FE
:103CB0007970652073746162696C697A65642061EA
:103CC0006674657220005D006D732C20766F6C74D5
:103CD00061676573203D205B00566F6C746167659A
:103CE000207479706520686173206265656E207547
:103CF0006E737461626C6520666F722000556E6130
:103D0000626C6520746F2061636365737320656EF8
:103D10006473746F7020776974682070696E200016
:103D200020656E61626C6564002064697361626C19
:103D3000656400556E61626C6520746F2064657403
:103D400065726D696E6520696620656E64207374A6
:103D50006F70207472696767657265642C20756E78
:103D60007265636F676E697A656420656E647374EB
:103D70006F702070726F766964656400737461742B
:103D800075732070696E206E616D6500202000459E
:103D90006E6473746F702073746174757300206F38
:103DA00070656E00205452494747455245440020F3
:103DB0006F666600206F6E00206D6F746F722077E3
:103DC0006173207475726E656420006D6D2C2076B1
:103DD000616C7565206973206F7574736964652003
:103DE00065787065637465642072616E67650055FF
:103DF0006E61626C6520746F2073657420646973F2
:103E000070656E73696E6720686569676874207491
:103E10006F20006D6D0044697370656E7365206876
:103E200065696768742073657420746F200053653A
:103E30006E64696E672000646964206E6F7420632D
:103E40006F6E6669726D00636F6E6669726D656430
:103E5000002072656164732900207369676E616C6C
:103E600073207365656E20696E2000206D65737325
:103E70006167652072656365697665642C2028003A
:103E8000546F6F6C2000206F662000702D746F706F
:103E9000206D6573736167652073656E74206F6E46
:103EA00020617474656D7074200052657472796954
:103EB0006E6700536574206472696C6C20726F7455
:103EC0006174696F6E20737065656420746F200083
:103ED000556E61626C6520746F2073746F7020641E
:103EE00072696C6C2C20636F6E6669726D206472EF
:103EF000696C6C2069732061747461636865642007
:103F0000616E6420706F7765726564004472696CDD
:103F10006C20636F756C64206E6F74206265206521
:103F200078706C696369746C792073746F707065F4
:103F3000642062656361757365206974206973200C
:103F40006E6F74206D6F756E746564004472696C79
:103F50006C2073746F70706564002C20636F6E66E4
:103F600069726D206472696C6C206973206174746D
:103F7000616368656420616E6420706F7765726547
:103F80006400556E61626C6520746F2073657420E7
:103F9000746865206472696C6C20726F74617469F6
:103FA0006F6E20737065656420746F2000207065EB
:103FB0007263656E742C2076616C75652069732060
:103FC0006F75747369646520657870656374656482
:103FD0002072616E676500556E61626C6520746F5A
:103FE0002073657420726F746174696F6E207370D2
:103FF00065656420746F20002C2070726F626520EC
:104000007265706F7274656420636F6E746163743F
:10401000206265666F7265206D6F76656D656E7482
:10402000207374617274656400556E61626C652002
:10403000746F2000207472696767657273004C6F3B
:10404000776572696E672070726F626520746F7732
:10405000617264207A2D73776974636820756E7459
:10406000696C20002C206475726174696F6E3A204F
:10407000002C2072656C65617365456E643A2000A2
:104080002C2072656C6561736553746172743A209B
:1040900000617070726F6163683A200066617374CA
:1040A000546F756368200020646964206E6F74200B
:1040B000636F6D706C657465002C206D6561737540
:1040C00072656D656E742000556E61626C6520745A
:1040D0006F2000206578636565647320616C6C6F88
:1040E000636174656420737061636520002C2072C5
:1040F0006571756573746564206E756D6265722097
:104100006F6620746F75636865732000556E616219
:104110006C6520746F200020646964206E6F7420C9
:10412000636F6D706C657465002C206D65617375CF
:1041300072656D656E742000556E61626C652074E9
:104140006F2000206578636565647320616C6C6F17
:1041500063617465642073706163652000746865D1
:1041600020726571756573746564206E756D626526
:1041700072206F662073616D706C657320002C2057
:1041800000556E61626C6520746F20002C20647590
:10419000726174696F6E3A20002C20746F74616CC8
:1041A000546F75636865733A20002C2073616D70DD
:1041B0006C657354616B656E3A20002C206D6561EF
:1041C000737572656D656E743A20002C2064697396
:1041D000706C6163656D656E743A200070726F6219
:1041E00065206865696768743A200058595A2073D9
:1041F000747261696E206761756765007374726FB0
:104200006E67657220737072696E67006F7269679E
:10421000696E616C0020206865696768742073614D
:10422000666574793A20696E616374697665002009
:1042300020686569676874207361666574793A20DF
:104240004F4E2C207361666520686569676874202D
:10425000697320002020646973706C6163656D650B
:104260006E743A200050726F626500507265706122
:1042700072696E6720746F6F6C202D2D20636F6DD7
:10428000706C657465642066756C6C207072657006
:1042900061726500507265706172696E6720746F3B
:1042A0006F6C202D2D20736B697070696E6720789C
:1042B000797A2D63616C6962726174696F6E005006
:1042C0007265706172696E6720746F6F6C202D2D3E
:1042D00020636F6D706C6574656420652D6F6E6C06
:1042E00079207072657061726500507265706172DC
:1042F000696E6720746F6F6C202D2D20636F6D7059
:104300006C657465642073746172742D6F6E6C7962
:1043100020707265706172650050726570617269BB
:104320006E6720746F6F6C00526573657420746FD4
:104330006F6C207072657061726174696F6E73006A
:10434000746F6F6C206465746163686564002076C7
:10435000657273696F6E3A0020747970653A007403
:104360006F6F6C557064617465003D0020747269F4
:104370006767657265642061742000556E61626CC8
:104380006520746F20636F6D706C657465206D6F50
:1043900076656D656E742C2000466C757368656477
:1043A0002073657269616C2062756666657200468D
:1043B0006C75736865642000466C757368696E6718
:1043C00020636F6D6D616E64730061207377697433
:1043D0006368206D61792062652074726967676522
:1043E00072696E6720696E7465726D697474656E4A
:1043F000746C790074686520737769746368657399
:104400002C206966207468657920646F206E6F7453
:10441000206D6174636820746865206572726F72C4
:104420002061626F7665207468656E20004E6F743F
:10443000653A2074686520666F6C6C6F77696E678B
:10444000207377697463682073746174757365731E
:1044500020617265207265616420646972656374AD
:104460002066726F6D20006C696D697420737769C6
:104470007463682074726967676572656420756E1D
:1044800065787065637465646C79004C696D6974F6
:1044900020737769746368207472696767657265F1
:1044A0006420756E65787065637465646C792C2022
:1044B000636C65616E696E672075702C206265663D
:1044C0006F7265207265706F7274696E67206572B5
:1044D000726F72002074696D6552656D61696E69F5
:1044E0006E673A00207461726765743A00206375E4
:1044F0007272656E743A0062656454656D706572BF
:104500006174757265557064617465002200222CB7
:10451000206D6573736167653A22002C20726561B6
:10452000736F6E3A2200526573656E64206C696E1B
:10453000654E756D6265723A006F6B00454550526D
:104540004F4D204F666673657473206D6973736990
:104550006E672E2049732074686520756E6974201B
:1045600063616C696272617465643F005265616485
:10457000696E672063616C6962726174696F6E2035
:1045800073657474696E67732C2076657273696FD6
:104590006E20004D6F746F727320636F6E66696773
:1045A00027640020627974657329002800206D6FEC
:1045B00076657320004D6F74696F6E206275666654
:1045C00065722073697A653A20002074696373000C
:1045D0007374657070657220737465702074696D92
:1045E000696E670073746570732F73007374657000
:1045F0007065722073746570207261746500207438
:1046000069637300737465707065722069737220DA
:10461000636F6D706C6574656420776974686F751D
:10462000742074726967676572696E6700757300DC
:10463000737465707065722069737220636F6D703A
:104640006C6574656420776974686F757420747222
:104650006967676572696E6700757300737465706A
:104660007065722069737220616C6C6F77696E6718
:104670002073657269616C20696E74657272757001
:10468000747300757300737465707065722069735C
:10469000722066696E6973686564206669727374F6
:1046A00020736574206F66207374657073004869A9
:1046B00067682D7761746572206D61726B20666F1B
:1046C000722000452D61786973005A2D61786973F5
:1046D00000592D6178697300582D617869730066FF
:1046E000726F6E742028792D6D617829006C656673
:1046F000742028782D6D6178290078792D706F737A
:104700006974696F6E65722066726F6E74202878A6
:10471000792D6D61782D79290078792D706F736905
:1047200074696F6E6572206261636B202878792DE1
:104730006D696E2D79290078792D706F73697469B0
:104740006F6E6572207269676874202878792D6DA4
:10475000696E2D78290078792D706F736974696F8F
:104760006E6572206C656674202878792D6D61788D
:104770002D7829007A2D73776974636820287A2D43
:104780006D696E2900746F6F6C207377697463684C
:104790002028702D746F70290063616C69627261EA
:1047A00074696F6E20706C6174652028702D626F63
:1047B000742900746F7020287A2D6D617829006249
:1047C00061636B2028792D6D696E290072696768B5
:1047D000742028782D6D696E290044697361626CBC
:1047E00065206469676974616C2072656164732017
:1047F0006F6620746865206265642074656D7065FD
:104800007261747572652070696E005265736574AB
:1048100074696E6720746F6F6C00206279746573C1
:104820000066726565206D656D6F7279004C6F77FB
:104830002D7761746572206D61726B20666F7220D6
:10484000007374617274696E6700726561647900E7
:104850007573652064656661756C74007573696E47
:1048600067207A2D7377697463683A20007A2D7314
:10487000776974636820636F6E6669673A20002900
:10488000002920646F6573206E6F74206D617463FE
:1048900068207072696E746572206D6F64656C203B
:1048A0002862617463682000556E61626C652074D3
:1048B0006F20757365207072696E7465722C206646
:1048C00069726D776172652076617269616E7420BC
:1048D000280062617463684E756D62657220697349
:1048E000200053657269616C206E756D6265723A65
:1048F00020006669726D7761726556657273696FC3
:104900006E5265706F72743A20004D43553A2053D1
:104910006F667477617265205265736574004D43EC
:10492000553A205761746368646F672052657365F8
:1049300074004D43553A2042726F776E206F757444
:10494000205265736574004D43553A20457874656F
:10495000726E616C205265736574004D43553A2048
:10496000506F7765725570002D2D73746172742DC0
:104970002D005265636569766564206120626C6113
:104980006E6B20636F6D6D616E642C2069676E6F56
:1049900072696E67004C696E65206E756D62657236
:1049A00020646F6573206E6F74206D61746368207E
:1049B00065787065637465642076616C7565004D1B
:1049C000697373696E67206C696E65206E756D62C0
:1049D00065720042616420636865636B73756D0086
:1049E0004D697373696E6720636861726163746592
:1049F0007273006D6573736167653D004D69737314
:104A0000696E6720636861726163746572732064A4
:104A1000657465637465642C20657870656374657E
:104A20006420213D2061637475616C2C20004D6908
:104A30007373696E67206D657373616765206C655C
:104A40006E67746800436F6D6D616E6420697320DA
:104A50006D697373696E67206D6573736167652037
:104A600076616C69646174696F6E206669656C64F7
:104A7000732C20617373756D696E67207261772086
:104A8000696E707574206D6F64652028692E652EBF
:104A900020627970617373696E67206D65737361ED
:104AA00067652076616C69646174696F6E290020A6
:104AB00077726974655F696E6465783D002720636D
:104AC0006F6D6D616E64735F696E5F71756575653D
:104AD0003D00456E71756575656420636F6D6D6130
:104AE0006E64202700556E61626C6520746F2070C3
:104AF000726F6365737320636F6D6D616E642C20DC
:104B0000636F6D6D616E6420717565756520697385
:104B10002066756C6C202D2D200077696C6C2069E7
:104B2000676E6F726520756E74696C20656E6420A7
:104B30006F6620636F6D6D616E6420666F756E6465
:104B4000202D2D00556E61626C6520746F2070728F
:104B50006F6365737320636F6D6D616E642C20638A
:104B60006F6D6D616E6420697320746F6F206C6F60
:104B70006E672C200046696E6973686564207265F3
:104B800063656976696E67206C6F6E6720636F6D11
:104B90006D616E6400556E6B6E6F776E20636F6D26
:104BA0006D616E6400207A5377697463685F793A47
:104BB00000207A5377697463685F783A00207879C7
:104BC000506F736974696F6E65725F7A3A0020780E
:104BD00079506F736974696F6E65725F793A0020FE
:104BE0007879506F736974696F6E65725F783A0097
:104BF000206379636C65733A00706F736974696FD1
:104C00006E43616C6962726174696F6E00207A53E1
:104C100077697463685F793A00207A5377697463BF
:104C2000685F783A00207879506F736974696F6EA5
:104C300065725F5A3A00207879506F736974696FB2
:104C40006E65725F793A00207879506F7369746984
:104C50006F6E65725F783A00526573657420506FAD
:104C6000736974696F6E7320746F0020463A002078
:104C7000453A00205A3A0020593A0020583A007329
:104C80005F707265706172655F6D6F7665000020A0
:104C9000473238202D20486F6D652061786573207C
:104CA0002D2D2047323820582C2047323820585993
:104CB0002C20473238004465707265636174656406
:104CC000000020473932202D20536574206375720F
:104CD00072656E7420706F736974696F6E20746F83
:104CE00020636F6F7264696E6174657320676976A3
:104CF000656E202D2D20473932205A332E34002066
:104D0000473931202D205573652052656C617469D7
:104D1000766520436F6F7264696E617465730020FD
:104D2000473930202D20557365204162736F6C75B3
:104D3000746520436F6F7264696E617465730020DF
:104D4000204734202D204477656C6C20666F7220DC
:104D50006120676976656E206475726174696F6E33
:104D6000202D2D20473420533C7365636F6E647390
:104D70003E206F7220503C6D696C6C697365636F87
:104D80006E64733E005574696C69746965730000E4
:104D900020204733202D20636F756E7465722D635C
:104DA0006C6F636B776973652061726300202020EC
:104DB000202020206966206E6F2074617267657400
:104DC000206C6F636174696F6E20676976656E2011
:104DD00063757272656E74206C6F636174696F6E57
:104DE00020697320757365642028736F20796F754F
:104DF00020676574206120636972636C6529202DCA
:104E00002D2047322049352077696C6C206D616B0D
:104E10006520612031306D6D20636972636C65209F
:104E2000617420582B350020204732202D20636CE0
:104E30006F636B77697365206172632066726F6D53
:104E40002063757272656E74206C6F636174696F34
:104E50006E20746F20676976656E206C6F63617475
:104E6000696F6E2077697468206172632063656E74
:104E700074657220617420676976656E206F66665E
:104E80007365740020204731202D206D6F766520DA
:104E9000746F2074686520676976656E20706F7323
:104EA0006974696F6E202D2D204731205831302EC6
:104EB00033205932332E34205A332E3320453332A7
:104EC000204633303030004D6F76656D656E742F3F
:104ED0005574696C69746965730000202063616CA6
:104EE0006962726174696F6E2061726520706572AB
:104EF000666F726D65642C20696620746865792020
:104F0000617265206E65656465642E0020206E6F99
:104F10006E2D736D61727420636F6D6D616E64735D
:104F20002E204974277320757020746F2074686573
:104F3000207573657220746F20656E7375726520BD
:104F4000686F6D696E6720616E642000472D436F46
:104F50006D6D616E6473002200556E6B6E6F776EBF
:104F600020636F6D6D616E643A202200656D707410
:104F7000790020653A00207A3A0020793A002078BA
:104F80003A00706F736974696F6E5570646174650F
:104F90000000002100240027002A002D00300033EB
:104FA0000001010000040107010A010000220025A0
:104FB0000028002B002E0031003400020100000503
:104FC0000108010B01000020002300260029002C0D
:104FD000002F003200000100000301060109010555
:104FE000050505070508080808020202020A0A0862
:104FF0000804040404010101010101010103030388
:105000000303030303040707070C0C0C0C0C0C0C24
:105010000C0202020206060606060606060B0B0B2B
:105020000B0B0B0B0B010210202008081020401066
:10503000204080020102010804020101020408105C
:10504000204080804020100804020180040201807A
:1050500040201008040201080402010102040810A3
:10506000204080010204081020408000000A0B024A
:10507000090C0D0E080703040100000000000000E9
:105080000000000000000000000000000000000020
:1050900000000000000000121110000000000000DD
:1050A0000000000000000000000000000000000000
:1050B000002D6178697300556E61626C6520746FB4
:1050C00020686F6D652000686F6D696E672061787C
:1050D00069733A200020726561645F696E64657867
:1050E0003D0020636F6D6D616E64735F696E5F710B
:1050F000756575653D002700446571756575656466
:1051000020636F6D6D616E64202700456E6473745B
:105110006F702068697420647572696E67207265AB
:105120006C6174697665206D6F76656D656E74006F
:1051300020453A00205A3A0020593A0020583A00B7
:10514000526573657474696E6720706C616E6E650C
:105150007220706F736974696F6E20746F00ECC990
:1051600011241FBECFEFD1E2DEBFCDBF00E00CBFE8
:1051700016E0A0E0B2E0EEE2FDED01E00BBF02C000
:1051800007900D92A237B107D9F724E1A2E7B6E064
:1051900001C01D92AB3FB207E1F718E2C0EBD8E2C5
:1051A00000E006C021970109802FFE010E947FEADE
:1051B000CF3AD10780E00807A9F70E9443CA0C94B0
:1051C00095EE0C940000DC01EFB7F89418966D9101
:1051D0007D918D919C911B971C962D913D914D91A8
:1051E0005C911F97EFBF0E94A6E5881F8827881F44
:1051F000089581E090E0089582E090E0089582E2D1
:1052000094E0089588E294E0089582E394E008959C
:1052100088E394E00895FA01EE0FFF1FEE0FFF1FE1
:10522000E259F34F20813181428153810E9406E18E
:105230000C9486E90F931F93CF93DF930EE51BE049
:10524000F80160817181828193810E94ABE550E019
:1052500040E00E940B29C0E7DBE0688379838A8302
:105260009B83F80164817581868197810E94ABE5FB
:1052700041E050E00E940B296C837D838E839F83E5
:10528000F80160857185828593850E94ABE542E0D7
:1052900050E00E940B29688779878A879B87F801ED
:1052A00064857585868597850E94ABE543E050E06F
:1052B0000E940B296C877D878E879F87DF91CF9116
:1052C0001F910F9108954F925F926F927F92AF92CC
:1052D000BF92CF92DF92EF92FF920F931F93CF93E3
:1052E000DF938C01EB01FC0145A056A067A070A4E0
:1052F000ADA0BEA0CFA0D8A49501A601C301B20164
:105300000E94A6E587FF3DC0A3019201C301B2013F
:105310000E9406E12B013C01F80161A972A983A951
:1053200094A990589B01AC010E9472E6F80125A552
:1053300036A547A550A90E9406E19B01AC01C30117
:10534000B2010E9471E60E94C7E97B018C019B01BA
:10535000AC01B501C6010E94A6E587FF02C0750138
:1053600086019701A801B501C6010E94A6E5882320
:1053700041F0C701D8018DA39EA3AFA3B8A781E0D8
:105380008DABDF91CF911F910F91FF90EF90DF9048
:10539000CF90BF90AF907F906F905F904F900895A7
:1053A0004F925F926F927F928F929F92AF92BF9235
:1053B000CF92DF92EF92FF920F931F93CF93DF93E1
:1053C000CDB7DEB76A970FB6F894DEBF0FBECDBF7C
:1053D0009A8F898F4A015B013901DC01D7966D9163
:1053E0007D918D919C91DA970E94ABE56B017C01D8
:1053F000A50194010E9406E10E9450E70E94E5E7A2
:105400004B015C01A3019801C701B6010E9406E1AE
:105410000E9450E70E94E5E78D829E82AF82B886A7
:105420002D813E814F815885283731054105510531
:1054300040F428E730E040E050E02D833E834F8386
:10544000588769837A838B839C8389819A81AB8116
:10545000BC8188379105A105B10540F428E730E00B
:1054600040E050E029833A834B835C83E98DFA8DD9
:10547000ED5BFF4F80819181A281B3818D879E87F3
:10548000AF87B88BBC01CD010E94ADE569877A87F3
:105490008B879C876D817E818F8198850E94ABE58B
:1054A000698B7A8B8B8B9C8B20E030E0A90169851E
:1054B0007A858B859C850E94A6E5882309F438C1EE
:1054C000A7019601C701B6010E9406E14B015C01EC
:1054D00029893A894B895C89CA01B9010E9406E190
:1054E0009B01AC01C501B4010E9471E64B015C0156
:1054F00029853A854B855C85CA01B9010E9472E60F
:105500009B01AC01C501B4010E946CE70E9450E709
:105510000E94DEE72B013C016D857E858F85988991
:1055200090958095709561957F4F8F4F9F4F0E940A
:10553000ADE54B015C0169817A818B819C810E9480
:10554000ABE56D877E878F87988B20E030E0A901DF
:10555000C501B4010E94A6E5882309F4EDC02D859C
:105560003E854F855889CA01B9010E9406E16D8BBD
:105570007E8B8F8B988FA7019601C701B6010E9481
:1055800006E19B01AC016D897E898F89988D0E940F
:1055900071E66B017C01A5019401C501B4010E9473
:1055A00072E69B01AC01C701B6010E946CE70E9444
:1055B00014E8A98DBA8D50968D909D90AD90BC90B9
:1055C000539775016401C418D508E608F7080E94CE
:1055D000DEE7C61AD70AE80AF90AF7FE67C020E034
:1055E00030E0A90169857A858B859C850E94A6E5B6
:1055F000882309F4A5C0C501B4010E94ABE56B0185
:105600007C0129853A854B855C85CA01B9010E94D8
:1056100072E69B01AC01C701B6010E9406E16B0175
:105620007C0129893A894B895C89CA01B9010E94A8
:1056300006E19B01AC01C701B6010E9471E66B0156
:105640007C012D853E854F855889CA01B9010E948C
:1056500006E19B01AC01C701B6010E9472E66B0135
:105660007C0120E030E040E850E469857A858B8554
:105670009C850E9406E19B01AC01C701B6010E9416
:105680006CE70E9450E70E94DEE72B013C0177FEA9
:1056900003C0412C512C3201481459046A047B0484
:1056A00010F024013501C12CD12C76018FB7F8946C
:1056B000E98DFA8DE95BFF4F9081911121C0E98D51
:1056C000FA8D448A558A668A778AC40CD51CE61CF2
:1056D000F71CDF01C08ED18EE28EF38E2D813E81CC
:1056E0004F81588523AF34AF45AF56AFDF96298140
:1056F0003A814B815C812D933D934D935C9313973D
:105700008FBF6A960FB6F894DEBF0FBECDBFDF9194
:10571000CF911F910F91FF90EF90DF90CF90BF90AE
:10572000AF909F908F907F906F905F904F90089573
:1057300060E070E0CB01EACE60E070E0CB0137CFF3
:1057400060E070E0CB019DCFEF92FF920F931F932B
:10575000CF938C017B01C42FF70161917F01F80188
:10576000808191810E9417E6F801808191810196E4
:1057700091838083C15081F7CF911F910F91FF904A
:10578000EF9008952F923F924F925F926F927F9287
:105790008F929F92AF92BF92CF92DF92EF92FF9241
:1057A0000F931F93CF93DF93CDB7DEB7C154D109C9
:1057B0000FB6F894DEBF0FBECDBF8FA7C090350BDC
:1057C000D090360BE090370BF090380B8090310B77
:1057D0009090320BA090330BB090340BA701960140
:1057E000C501B4010E94E5E86BA37CA38DA39EA331
:1057F000E0916C0CF0916D0CE159FD4F20813181ED
:105800003E8F2D8F8091C30C9091C40CA091C50C3C
:10581000B091C60C8D879E87AF87B88B9C01AD0178
:10582000C501B4010E9472E66FA378A789A79AA761
:105830008091C70C9091C80CA091C90CB091CA0C72
:105840008D839E83AF83B8879C01AD01C701B601EC
:105850000E9472E66BA77CA78DA79EA78091CB0CB8
:105860009091CC0CA091CD0CB091CE0C8F8F98A3C1
:10587000A9A3BAA39C01AD0160915D0C70915E0C6F
:1058800080915F0C9091600C0E9471E6698B7A8B1D
:105890008B8B9C8BD501C401B05889879A87AB87C5
:1058A000BC87D701C601B05889839A83AB83BC8378
:1058B0008091550C9091560CA091570CB091580CBA
:1058C0008D8B9E8BAF8BB88F2FA138A549A55AA57C
:1058D000BC01CD010E9471E66B017C018091590CE5
:1058E00090915A0CA0915B0CB0915C0C898F9A8FAF
:1058F000AB8FBC8F2BA53CA54DA55EA5BC01CD01F2
:105900000E9471E64B015C01A701960169857A85C9
:105910008B859C850E9406E12B013C01A501940129
:1059200069817A818B819C810E9406E19B01AC0197
:10593000C301B2010E9472E62B013C01A501940152
:1059400069857A858B859C850E9406E14B015C0107
:10595000A701960169817A818B819C810E9406E171
:105960009B01AC01C501B4010E9471E6A301920143
:105970000E94F1E66B017C0120E030E0A9010E9469
:10598000A6E587FF0AC02BED3FE049EC50E4C701D4
:10599000B6010E9472E66B017C019FA5992351F02C
:1059A0002BED3FE049EC50E4C701B6010E9471E6DF
:1059B0006B017C0120E030E0A901C701B6010E9423
:1059C000A6E5811122C02D893E894F89588D6D85AC
:1059D0007E858F8598890E94A6E5811116C0298D44
:1059E0003A8D4B8D5C8D6D817E818F8198850E9473
:1059F000A6E581110AC02BED3FE049EC50E4C70158
:105A0000B6010E9472E66B017C01A70196016BA1B1
:105A10007CA18DA19EA10E9406E129893A894B892A
:105A20005C890E94E5E84B015C012FE632E143E826
:105A30005AE30E94A6E587FDE9C12DEC3CEC4CE45D
:105A40005DE3C501B4010E946CE70E9414E80E9466
:105A5000E5E71B01672B19F422242394312C609174
:105A60002C0270912D02072E000C880B990B0E94BE
:105A7000ADE520912E0230912F02409130025091DD
:105A800031020E9406E120E030E048EC52E40E943E
:105A90006CE76D8B798F8BA39FA76CAF7DAF8EAFBB
:105AA0009FAF8091CF0C9091D00CA091D10CB09170
:105AB000D20C8D879E87AF87B88BB10190E080E0D4
:105AC0000E94ABE54B015C01AC019B01C701B60133
:105AD0000E946CE72B013C01A501940169897A8938
